{
  "transactions": [
    {
      "hash": "0x70d2dc7ddd206cbed8a6f9f4e8e507f2de962d897a5dbb9189e07dc543dc738f",
      "transactionType": "CALL",
      "contractName": null,
      "contractAddress": "0x49Ae32cf606e5cCdcf0d7Fe494f94AaaC3deb894",
      "function": "initialize((uint16,address,address))",
      "arguments": [
        "(10161, 0x55370E0fBB5f5b8dAeD978BA1c075a499eB107B8, 0x7AC7CE1FABf3F75836F5b93fb7b733aD86fc5596)"
      ],
      "transaction": {
        "type": "0x02",
        "from": "0x258c7a0e0f5f4d2722c74899cfe66a4ce7a0b6b1",
        "to": "0x49ae32cf606e5ccdcf0d7fe494f94aaac3deb894",
        "gas": "0x38c44",
        "value": "0x0",
        "data": "0x7e3bba1300000000000000000000000000000000000000000000000000000000000027b100000000000000000000000055370e0fbb5f5b8daed978ba1c075a499eb107b80000000000000000000000007ac7ce1fabf3f75836f5b93fb7b733ad86fc5596",
        "nonce": "0x5",
        "accessList": []
      },
      "additionalContracts": [],
      "isFixedGasLimit": false
    }
  ],
  "receipts": [],
  "libraries": [],
  "pending": [
    "0x70d2dc7ddd206cbed8a6f9f4e8e507f2de962d897a5dbb9189e07dc543dc738f"
  ],
  "returns": {},
  "timestamp": 1711528394,
  "chain": 84532,
  "multi": false,
  "commit": "061fdd0"
}