{
  "transactions": [
    {
      "hash": "0x70d2dc7ddd206cbed8a6f9f4e8e507f2de962d897a5dbb9189e07dc543dc738f",
      "transactionType": "CALL",
      "contractName": null,
      "contractAddress": "0x49Ae32cf606e5cCdcf0d7Fe494f94AaaC3deb894",
      "function": "initialize((uint16,address,address))",
      "arguments": [
        "(10161, 0x55370E0fBB5f5b8dAeD978BA1c075a499eB107B8, 0x7AC7CE1FABf3F75836F5b93fb7b733aD86fc5596)"
      ],
      "transaction": {
        "type": "0x02",
        "from": "0x258c7a0e0f5f4d2722c74899cfe66a4ce7a0b6b1",
        "to": "0x49ae32cf606e5ccdcf0d7fe494f94aaac3deb894",
        "gas": "0x38c44",
        "value": "0x0",
        "data": "0x7e3bba1300000000000000000000000000000000000000000000000000000000000027b100000000000000000000000055370e0fbb5f5b8daed978ba1c075a499eb107b80000000000000000000000007ac7ce1fabf3f75836f5b93fb7b733ad86fc5596",
        "nonce": "0x5",
        "accessList": []
      },
      "additionalContracts": [],
      "isFixedGasLimit": false
    }
  ],
  "receipts": [
    {
      "transactionHash": "0x70d2dc7ddd206cbed8a6f9f4e8e507f2de962d897a5dbb9189e07dc543dc738f",
      "transactionIndex": "0x1",
      "blockHash": "0xc844c3865b71296ae47e1d75dac3e53025fce7e8a952ff239fdbbb197893886b",
      "blockNumber": "0x783d76",
      "from": "0x258c7A0e0F5F4D2722C74899cFE66a4Ce7a0B6b1",
      "to": "0x49Ae32cf606e5cCdcf0d7Fe494f94AaaC3deb894",
      "cumulativeGasUsed": "0x31879",
      "gasUsed": "0x26d0a",
      "contractAddress": null,
      "logs": [
        {
          "address": "0x49Ae32cf606e5cCdcf0d7Fe494f94AaaC3deb894",
          "topics": [
            "0xfa41487ad5d6728f0b19276fa1eddc16558578f5109fc39d2dc33c3230470dab"
          ],
          "data": "0x00000000000000000000000000000000000000000000000000000000000027b1000000000000000000000000000000000000000000000000000000000000004000000000000000000000000000000000000000000000000000000000000000287ac7ce1fabf3f75836f5b93fb7b733ad86fc559649ae32cf606e5ccdcf0d7fe494f94aaac3deb894000000000000000000000000000000000000000000000000",
          "blockHash": "0xc844c3865b71296ae47e1d75dac3e53025fce7e8a952ff239fdbbb197893886b",
          "blockNumber": "0x783d76",
          "transactionHash": "0x70d2dc7ddd206cbed8a6f9f4e8e507f2de962d897a5dbb9189e07dc543dc738f",
          "transactionIndex": "0x1",
          "logIndex": "0x0",
          "removed": false
        }
      ],
      "status": "0x1",
      "logsBloom": "0x00000000000000000000000000000000000000000000000000000000000000000000000000000000000000000000000000000000000000000000000000000000000000000000000000000000000000000000000000000000000000000008000000000000000000000000000000000000000000000000000080000000000000000000000200000000100000004000000000000000000000000000000000000000000000000000000000800000000000000000000000000000000000000000000000000000000000000000000000000000000000000000000000000000000000000000000000000000000000000000000000000000000000000000000000000000",
      "type": "0x2",
      "effectiveGasPrice": "0xb2d05f07"
    }
  ],
  "libraries": [],
  "pending": [],
  "returns": {},
  "timestamp": 1711528400,
  "chain": 84532,
  "multi": false,
  "commit": "061fdd0"
}